{
  "contractName": "NoteApp",
  "abi": [
    {
      "inputs": [
        {
          "internalType": "uint256",
          "name": "",
          "type": "uint256"
        }
      ],
      "name": "tasks",
      "outputs": [
        {
          "internalType": "uint256",
          "name": "taskid",
          "type": "uint256"
        },
        {
          "internalType": "address",
          "name": "writer",
          "type": "address"
        },
        {
          "internalType": "string",
          "name": "content",
          "type": "string"
        },
        {
          "internalType": "string",
          "name": "author",
          "type": "string"
        },
        {
          "internalType": "bool",
          "name": "done",
          "type": "bool"
        }
      ],
      "stateMutability": "view",
      "type": "function",
      "constant": true
    },
    {
      "inputs": [
        {
          "internalType": "string",
          "name": "_content",
          "type": "string"
        },
        {
          "internalType": "string",
          "name": "_author",
          "type": "string"
        }
      ],
      "name": "createTask",
      "outputs": [],
      "stateMutability": "nonpayable",
      "type": "function"
    },
    {
      "inputs": [
        {
          "internalType": "uint256",
          "name": "_id",
          "type": "uint256"
        }
      ],
      "name": "getTask",
      "outputs": [
        {
          "internalType": "uint256",
          "name": "",
          "type": "uint256"
        },
        {
          "internalType": "address",
          "name": "",
          "type": "address"
        },
        {
          "internalType": "string",
          "name": "",
          "type": "string"
        },
        {
          "internalType": "string",
          "name": "",
          "type": "string"
        },
        {
          "internalType": "bool",
          "name": "",
          "type": "bool"
        }
      ],
      "stateMutability": "view",
      "type": "function",
      "constant": true
    },
    {
      "inputs": [],
      "name": "getTasks",
      "outputs": [
        {
          "components": [
            {
              "internalType": "uint256",
              "name": "taskid",
              "type": "uint256"
            },
            {
              "internalType": "address",
              "name": "writer",
              "type": "address"
            },
            {
              "internalType": "string",
              "name": "content",
              "type": "string"
            },
            {
              "internalType": "string",
              "name": "author",
              "type": "string"
            },
            {
              "internalType": "bool",
              "name": "done",
              "type": "bool"
            }
          ],
          "internalType": "struct NoteApp.Task[]",
          "name": "",
          "type": "tuple[]"
        }
      ],
      "stateMutability": "view",
      "type": "function",
      "constant": true
    },
    {
      "inputs": [
        {
          "internalType": "uint256",
          "name": "_index",
          "type": "uint256"
        }
      ],
      "name": "setDoneTrue",
      "outputs": [],
      "stateMutability": "nonpayable",
      "type": "function"
    },
    {
      "inputs": [],
      "name": "callerFunc",
      "outputs": [
        {
          "internalType": "address",
          "name": "",
          "type": "address"
        }
      ],
      "stateMutability": "view",
      "type": "function",
      "constant": true
    },
    {
      "inputs": [
        {
          "internalType": "uint256",
          "name": "_index",
          "type": "uint256"
        }
      ],
      "name": "deleteTask",
      "outputs": [
        {
          "components": [
            {
              "internalType": "uint256",
              "name": "taskid",
              "type": "uint256"
            },
            {
              "internalType": "address",
              "name": "writer",
              "type": "address"
            },
            {
              "internalType": "string",
              "name": "content",
              "type": "string"
            },
            {
              "internalType": "string",
              "name": "author",
              "type": "string"
            },
            {
              "internalType": "bool",
              "name": "done",
              "type": "bool"
            }
          ],
          "internalType": "struct NoteApp.Task[]",
          "name": "",
          "type": "tuple[]"
        }
      ],
      "stateMutability": "nonpayable",
      "type": "function"
    }
  ],
  "bytecode": "0x608060405234801561001057600080fd5b506112dc806100206000396000f3fe608060405234801561001057600080fd5b506004361061007d5760003560e01c8063292a45851161005b578063292a4585146100f257806337d18bbd1461010e578063560f31921461012a5780638d9776721461015a5761007d565b806304a87e38146100825780631d65e77e146100a0578063272d98af146100d4575b600080fd5b61008a61018e565b6040516100979190610ee8565b60405180910390f35b6100ba60048036038101906100b59190610f4a565b61038c565b6040516100cb959493929190610fee565b60405180910390f35b6100dc610583565b6040516100e9919061104f565b60405180910390f35b61010c6004803603810190610107919061119f565b610590565b005b61012860048036038101906101239190610f4a565b6106b7565b005b610144600480360381019061013f9190610f4a565b6107ad565b6040516101519190610ee8565b60405180910390f35b610174600480360381019061016f9190610f4a565b610a35565b604051610185959493929190610fee565b60405180910390f35b60606000805480602002602001604051908101604052809291908181526020016000905b8282101561038357838290600052602060002090600502016040518060a0016040529081600082015481526020016001820160009054906101000a900473ffffffffffffffffffffffffffffffffffffffff1673ffffffffffffffffffffffffffffffffffffffff1673ffffffffffffffffffffffffffffffffffffffff16815260200160028201805461024590611246565b80601f016020809104026020016040519081016040528092919081815260200182805461027190611246565b80156102be5780601f10610293576101008083540402835291602001916102be565b820191906000526020600020905b8154815290600101906020018083116102a157829003601f168201915b505050505081526020016003820180546102d790611246565b80601f016020809104026020016040519081016040528092919081815260200182805461030390611246565b80156103505780601f1061032557610100808354040283529160200191610350565b820191906000526020600020905b81548152906001019060200180831161033357829003601f168201915b505050505081526020016004820160009054906101000a900460ff161515151581525050815260200190600101906101b2565b50505050905090565b600080606080600085600087815481106103a9576103a8611277565b5b906000526020600020906005020160010160009054906101000a900473ffffffffffffffffffffffffffffffffffffffff16600088815481106103ef576103ee611277565b5b90600052602060002090600502016002016000898154811061041457610413611277565b5b906000526020600020906005020160030160008a8154811061043957610438611277565b5b906000526020600020906005020160040160009054906101000a900460ff1682805461046490611246565b80601f016020809104026020016040519081016040528092919081815260200182805461049090611246565b80156104dd5780601f106104b2576101008083540402835291602001916104dd565b820191906000526020600020905b8154815290600101906020018083116104c057829003601f168201915b505050505092508180546104f090611246565b80601f016020809104026020016040519081016040528092919081815260200182805461051c90611246565b80156105695780601f1061053e57610100808354040283529160200191610569565b820191906000526020600020905b81548152906001019060200180831161054c57829003601f168201915b505050505091509450945094509450945091939590929450565b6000803390508091505090565b600033905060006040518060a0016040528060008054905081526020018373ffffffffffffffffffffffffffffffffffffffff1681526020018581526020018481526020016000151581525090806001815401808255809150506001900390600052602060002090600502016000909190919091506000820151816000015560208201518160010160006101000a81548173ffffffffffffffffffffffffffffffffffffffff021916908373ffffffffffffffffffffffffffffffffffffffff1602179055506040820151816002019080519060200190610672929190610bb8565b50606082015181600301908051906020019061068f929190610bb8565b5060808201518160040160006101000a81548160ff0219169083151502179055505050505050565b60003390508073ffffffffffffffffffffffffffffffffffffffff16600083815481106106e7576106e6611277565b5b906000526020600020906005020160010160009054906101000a900473ffffffffffffffffffffffffffffffffffffffff1673ffffffffffffffffffffffffffffffffffffffff161461073957600080fd5b6000828154811061074d5761074c611277565b5b906000526020600020906005020160040160009054906101000a900460ff16156000838154811061078157610780611277565b5b906000526020600020906005020160040160006101000a81548160ff0219169083151502179055505050565b6060600082815481106107c3576107c2611277565b5b90600052602060002090600502016000808201600090556001820160006101000a81549073ffffffffffffffffffffffffffffffffffffffff02191690556002820160006108119190610c3e565b6003820160006108219190610c3e565b6004820160006101000a81549060ff021916905550506000805480602002602001604051908101604052809291908181526020016000905b82821015610a2a57838290600052602060002090600502016040518060a0016040529081600082015481526020016001820160009054906101000a900473ffffffffffffffffffffffffffffffffffffffff1673ffffffffffffffffffffffffffffffffffffffff1673ffffffffffffffffffffffffffffffffffffffff1681526020016002820180546108ec90611246565b80601f016020809104026020016040519081016040528092919081815260200182805461091890611246565b80156109655780601f1061093a57610100808354040283529160200191610965565b820191906000526020600020905b81548152906001019060200180831161094857829003601f168201915b5050505050815260200160038201805461097e90611246565b80601f01602080910402602001604051908101604052809291908181526020018280546109aa90611246565b80156109f75780601f106109cc576101008083540402835291602001916109f7565b820191906000526020600020905b8154815290600101906020018083116109da57829003601f168201915b505050505081526020016004820160009054906101000a900460ff16151515158152505081526020019060010190610859565b505050509050919050565b60008181548110610a4557600080fd5b90600052602060002090600502016000915090508060000154908060010160009054906101000a900473ffffffffffffffffffffffffffffffffffffffff1690806002018054610a9490611246565b80601f0160208091040260200160405190810160405280929190818152602001828054610ac090611246565b8015610b0d5780601f10610ae257610100808354040283529160200191610b0d565b820191906000526020600020905b815481529060010190602001808311610af057829003601f168201915b505050505090806003018054610b2290611246565b80601f0160208091040260200160405190810160405280929190818152602001828054610b4e90611246565b8015610b9b5780601f10610b7057610100808354040283529160200191610b9b565b820191906000526020600020905b815481529060010190602001808311610b7e57829003601f168201915b5050505050908060040160009054906101000a900460ff16905085565b828054610bc490611246565b90600052602060002090601f016020900481019282610be65760008555610c2d565b82601f10610bff57805160ff1916838001178555610c2d565b82800160010185558215610c2d579182015b82811115610c2c578251825591602001919060010190610c11565b5b509050610c3a9190610c7e565b5090565b508054610c4a90611246565b6000825580601f10610c5c5750610c7b565b601f016020900490600052602060002090810190610c7a9190610c7e565b5b50565b5b80821115610c97576000816000905550600101610c7f565b5090565b600081519050919050565b600082825260208201905092915050565b6000819050602082019050919050565b6000819050919050565b610cda81610cc7565b82525050565b600073ffffffffffffffffffffffffffffffffffffffff82169050919050565b6000610d0b82610ce0565b9050919050565b610d1b81610d00565b82525050565b600081519050919050565b600082825260208201905092915050565b60005b83811015610d5b578082015181840152602081019050610d40565b83811115610d6a576000848401525b50505050565b6000601f19601f8301169050919050565b6000610d8c82610d21565b610d968185610d2c565b9350610da6818560208601610d3d565b610daf81610d70565b840191505092915050565b60008115159050919050565b610dcf81610dba565b82525050565b600060a083016000830151610ded6000860182610cd1565b506020830151610e006020860182610d12565b5060408301518482036040860152610e188282610d81565b91505060608301518482036060860152610e328282610d81565b9150506080830151610e476080860182610dc6565b508091505092915050565b6000610e5e8383610dd5565b905092915050565b6000602082019050919050565b6000610e7e82610c9b565b610e888185610ca6565b935083602082028501610e9a85610cb7565b8060005b85811015610ed65784840389528151610eb78582610e52565b9450610ec283610e66565b925060208a01995050600181019050610e9e565b50829750879550505050505092915050565b60006020820190508181036000830152610f028184610e73565b905092915050565b6000604051905090565b600080fd5b600080fd5b610f2781610cc7565b8114610f3257600080fd5b50565b600081359050610f4481610f1e565b92915050565b600060208284031215610f6057610f5f610f14565b5b6000610f6e84828501610f35565b91505092915050565b610f8081610cc7565b82525050565b610f8f81610d00565b82525050565b600082825260208201905092915050565b6000610fb182610d21565b610fbb8185610f95565b9350610fcb818560208601610d3d565b610fd481610d70565b840191505092915050565b610fe881610dba565b82525050565b600060a0820190506110036000830188610f77565b6110106020830187610f86565b81810360408301526110228186610fa6565b905081810360608301526110368185610fa6565b90506110456080830184610fdf565b9695505050505050565b60006020820190506110646000830184610f86565b92915050565b600080fd5b600080fd5b7f4e487b7100000000000000000000000000000000000000000000000000000000600052604160045260246000fd5b6110ac82610d70565b810181811067ffffffffffffffff821117156110cb576110ca611074565b5b80604052505050565b60006110de610f0a565b90506110ea82826110a3565b919050565b600067ffffffffffffffff82111561110a57611109611074565b5b61111382610d70565b9050602081019050919050565b82818337600083830152505050565b600061114261113d846110ef565b6110d4565b90508281526020810184848401111561115e5761115d61106f565b5b611169848285611120565b509392505050565b600082601f8301126111865761118561106a565b5b813561119684826020860161112f565b91505092915050565b600080604083850312156111b6576111b5610f14565b5b600083013567ffffffffffffffff8111156111d4576111d3610f19565b5b6111e085828601611171565b925050602083013567ffffffffffffffff81111561120157611200610f19565b5b61120d85828601611171565b9150509250929050565b7f4e487b7100000000000000000000000000000000000000000000000000000000600052602260045260246000fd5b6000600282049050600182168061125e57607f821691505b60208210810361127157611270611217565b5b50919050565b7f4e487b7100000000000000000000000000000000000000000000000000000000600052603260045260246000fdfea264697066735822122041a650a056e09a02b0fc298699c043888951aa9733f6e5cbee722e49a217f29764736f6c634300080e0033",
  "immutableReferences": {},
  "source": "//SPDX-License-Identifier: MIT\r\npragma solidity ^0.8.0;\r\n\r\ncontract NoteApp {\r\n    struct Task {\r\n        uint256 taskid;\r\n        address writer;\r\n        string content;\r\n        string author;\r\n        bool done;\r\n    }\r\n\r\n    Task[] public tasks;\r\n\r\n    function createTask(string memory _content, string memory _author)\r\n        external\r\n    {\r\n        address _writer = msg.sender;\r\n        tasks.push(Task(tasks.length, _writer, _content, _author, false));\r\n    }\r\n\r\n    function getTask(uint256 _id)\r\n        external\r\n        view\r\n        returns (\r\n            uint256,\r\n            address,\r\n            string memory,\r\n            string memory,\r\n            bool\r\n        )\r\n    {\r\n        return (\r\n            _id,\r\n            tasks[_id].writer,\r\n            tasks[_id].content,\r\n            tasks[_id].author,\r\n            tasks[_id].done\r\n        );\r\n    }\r\n\r\n    function getTasks() external view returns (Task[] memory) {\r\n        return tasks;\r\n    }\r\n\r\n    function setDoneTrue(uint256 _index) external {\r\n        address _writer = msg.sender;\r\n        require(tasks[_index].writer == _writer);\r\n        tasks[_index].done = !tasks[_index].done;\r\n    }\r\n\r\n    function callerFunc() external view returns (address) {\r\n        address caller = msg.sender;\r\n        return caller;\r\n    }\r\n\r\n    function deleteTask(uint256 _index) external returns (Task[] memory) {\r\n        delete tasks[_index];\r\n        return tasks;\r\n    }\r\n}\r\n",
  "sourcePath": "C:\\Users\\Slim5 A1IN R5\\Desktop\\To_Do_Dapp\\truffle\\contracts\\NoteApp.sol",
  "compiler": {
    "name": "solc",
    "version": "0.8.14+commit.80d49f37.Emscripten.clang"
  },
  "schemaVersion": "3.4.10",
  "updatedAt": "2022-11-11T05:15:24.357Z",
  "networkType": "ethereum",
  "devdoc": {
    "kind": "dev",
    "methods": {},
    "version": 1
  },
  "userdoc": {
    "kind": "user",
    "methods": {},
    "version": 1
  }
}